{
  "contractName": "Hello",
  "abi": [
    {
      "constant": true,
      "inputs": [],
      "name": "value",
      "outputs": [
        {
          "name": "",
          "type": "uint256"
        }
      ],
      "payable": false,
      "stateMutability": "view",
      "type": "function",
      "signature": "0x3fa4f245"
    },
    {
      "anonymous": false,
      "inputs": [
        {
          "indexed": false,
          "name": "_value",
          "type": "uint256"
        }
      ],
      "name": "UpdateNumber",
      "type": "event",
      "signature": "0x6b92c47882e6ee1bf9b304b5254abd6e69d89bc7ed8883e365791c127b146a82"
    },
    {
      "constant": false,
      "inputs": [],
      "name": "update",
      "outputs": [],
      "payable": false,
      "stateMutability": "nonpayable",
      "type": "function",
      "signature": "0xa2e62045"
    },
    {
      "constant": true,
      "inputs": [],
      "name": "get",
      "outputs": [
        {
          "name": "",
          "type": "uint256"
        }
      ],
      "payable": false,
      "stateMutability": "view",
      "type": "function",
      "signature": "0x6d4ce63c"
    }
  ],
  "bytecode": "0x608060405234801561001057600080fd5b50610149806100206000396000f3fe608060405260043610610051576000357c0100000000000000000000000000000000000000000000000000000000900480633fa4f245146100565780636d4ce63c14610081578063a2e62045146100ac575b600080fd5b34801561006257600080fd5b5061006b6100c3565b6040518082815260200191505060405180910390f35b34801561008d57600080fd5b506100966100c9565b6040518082815260200191505060405180910390f35b3480156100b857600080fd5b506100c16100d2565b005b60005481565b60008054905090565b600160008082825401925050819055507f6b92c47882e6ee1bf9b304b5254abd6e69d89bc7ed8883e365791c127b146a826000546040518082815260200191505060405180910390a156fea165627a7a72305820de03159874ff94ab9bc71281b2302ef566d53e9fd1109acd0c9da418bfc2c59a0029",
  "source": "pragma solidity ^0.5.1;\n\ncontract Hello {\n    uint256 public value;\n\n    event UpdateNumber(uint256 _value);\n\n    function update() public {\n        value += 1;\n        emit UpdateNumber(value);\n    }\n\n    function get() public view returns (uint256) {\n        return value;\n    }\n}",
  "sourcePath": "/Users/chenwei/Desktop/workshop/workshop-dapp-development/02_web3_connect_to_local_rpc_and_access_contract/contracts/Hello.sol",
  "compiler": {
    "name": "solc",
    "version": "0.5.1+commit.d7688b80.Emscripten.clang"
  },
  "schemaVersion": "3.0.10",
  "updatedAt": "2019-01-10T08:19:59.620Z",
  "devdoc": {
    "methods": {}
  },
  "userdoc": {
    "methods": {}
  }
}