{
  "contractName": "Hello",
  "abi": [
    {
      "constant": true,
      "inputs": [],
      "name": "value",
      "outputs": [
        {
          "name": "",
          "type": "uint256"
        }
      ],
      "payable": false,
      "stateMutability": "view",
      "type": "function",
      "signature": "0x3fa4f245"
    },
    {
      "constant": true,
      "inputs": [],
      "name": "value2",
      "outputs": [
        {
          "name": "",
          "type": "uint256"
        }
      ],
      "payable": false,
      "stateMutability": "view",
      "type": "function",
      "signature": "0x5d33a27f"
    },
    {
      "constant": false,
      "inputs": [],
      "name": "update",
      "outputs": [],
      "payable": false,
      "stateMutability": "nonpayable",
      "type": "function",
      "signature": "0xa2e62045"
    }
  ],
  "bytecode": "0x608060405234801561001057600080fd5b50610111806100206000396000f3fe608060405260043610604d576000357c0100000000000000000000000000000000000000000000000000000000900480633fa4f2451460525780635d33a27f14607a578063a2e620451460a2575b600080fd5b348015605d57600080fd5b50606460b6565b6040518082815260200191505060405180910390f35b348015608557600080fd5b50608c60bc565b6040518082815260200191505060405180910390f35b34801560ad57600080fd5b5060b460c2565b005b60005481565b60015481565b60016000808282540192505081905550600260016000828254019250508190555056fea165627a7a723058202ca0b37766d0c0e77de633cf241ddfd70adc7985b0ed2708e226e652cb5705dc0029",
  "source": "pragma solidity ^0.5.1;\n\ncontract Hello {\n    uint256 public value;\n    uint256 public value2;\n\n    function update() public {\n        value += 1;\n        value2 += 2;\n    }\n}",
  "sourcePath": "/Users/chenwei/Desktop/workshop/workshop-dapp-development/07_sync_contract_data_by_polling/contracts/Hello.sol",
  "compiler": {
    "name": "solc",
    "version": "0.5.1+commit.d7688b80.Emscripten.clang"
  },
  "schemaVersion": "3.0.10",
  "updatedAt": "2019-01-15T10:13:39.776Z",
  "devdoc": {
    "methods": {}
  },
  "userdoc": {
    "methods": {}
  }
}