{
  "contractName": "Data",
  "abi": [
    {
      "constant": true,
      "inputs": [
        {
          "name": "",
          "type": "address"
        }
      ],
      "name": "numbers",
      "outputs": [
        {
          "name": "",
          "type": "uint256"
        }
      ],
      "payable": false,
      "stateMutability": "view",
      "type": "function",
      "signature": "0xe349fe3a"
    },
    {
      "inputs": [],
      "payable": false,
      "stateMutability": "nonpayable",
      "type": "constructor"
    },
    {
      "constant": false,
      "inputs": [
        {
          "name": "user",
          "type": "address"
        },
        {
          "name": "num",
          "type": "uint256"
        }
      ],
      "name": "setNumber",
      "outputs": [],
      "payable": false,
      "stateMutability": "nonpayable",
      "type": "function",
      "signature": "0x845a1778"
    },
    {
      "constant": true,
      "inputs": [
        {
          "name": "user",
          "type": "address"
        }
      ],
      "name": "getNumber",
      "outputs": [
        {
          "name": "",
          "type": "uint256"
        }
      ],
      "payable": false,
      "stateMutability": "view",
      "type": "function",
      "signature": "0x942ea466"
    },
    {
      "constant": false,
      "inputs": [
        {
          "name": "_addr",
          "type": "address"
        }
      ],
      "name": "setLogicContract",
      "outputs": [],
      "payable": false,
      "stateMutability": "nonpayable",
      "type": "function",
      "signature": "0x5aa4470f"
    }
  ],
  "bytecode": "0x608060405234801561001057600080fd5b50336000806101000a81548173ffffffffffffffffffffffffffffffffffffffff021916908373ffffffffffffffffffffffffffffffffffffffff1602179055506103a7806100606000396000f3fe60806040526004361061005c576000357c0100000000000000000000000000000000000000000000000000000000900480635aa4470f14610061578063845a1778146100b2578063942ea4661461010d578063e349fe3a14610172575b600080fd5b34801561006d57600080fd5b506100b06004803603602081101561008457600080fd5b81019080803573ffffffffffffffffffffffffffffffffffffffff1690602001909291905050506101d7565b005b3480156100be57600080fd5b5061010b600480360360408110156100d557600080fd5b81019080803573ffffffffffffffffffffffffffffffffffffffff16906020019092919080359060200190929190505050610276565b005b34801561011957600080fd5b5061015c6004803603602081101561013057600080fd5b81019080803573ffffffffffffffffffffffffffffffffffffffff16906020019092919050505061031a565b6040518082815260200191505060405180910390f35b34801561017e57600080fd5b506101c16004803603602081101561019557600080fd5b81019080803573ffffffffffffffffffffffffffffffffffffffff169060200190929190505050610363565b6040518082815260200191505060405180910390f35b6000809054906101000a900473ffffffffffffffffffffffffffffffffffffffff1673ffffffffffffffffffffffffffffffffffffffff163373ffffffffffffffffffffffffffffffffffffffff1614151561023257600080fd5b80600160006101000a81548173ffffffffffffffffffffffffffffffffffffffff021916908373ffffffffffffffffffffffffffffffffffffffff16021790555050565b600160009054906101000a900473ffffffffffffffffffffffffffffffffffffffff1673ffffffffffffffffffffffffffffffffffffffff163373ffffffffffffffffffffffffffffffffffffffff161415156102d257600080fd5b80600260008473ffffffffffffffffffffffffffffffffffffffff1673ffffffffffffffffffffffffffffffffffffffff168152602001908152602001600020819055505050565b6000600260008373ffffffffffffffffffffffffffffffffffffffff1673ffffffffffffffffffffffffffffffffffffffff168152602001908152602001600020549050919050565b6002602052806000526040600020600091509050548156fea165627a7a7230582055e4c673dfd72e101a018f4e02f1deec9dff3a8b5af484c37d1d1bed518a6a260029",
  "source": "pragma solidity ^0.5.1;\n\ncontract Data {\n  address owner;\n  address logicContract;\n\n  mapping(address => uint) public numbers;\n\n  constructor() public {\n    owner = msg.sender;\n  }\n\n  function setNumber(address user, uint256 num) onlyLogicContract external {\n    numbers[user] = num;\n  }\n  function getNumber(address user) external view returns(uint256) {\n    return numbers[user];\n  }\n\n  function setLogicContract(address _addr) onlyOwner public {\n    logicContract = _addr;\n  }\n\n  modifier onlyOwner() {\n    require(msg.sender == owner);\n    _;\n  }\n  modifier onlyLogicContract() {\n    require(msg.sender == logicContract);\n    _;\n  }\n}\n\ncontract Logic {\n\n  Data public data;\n  address owner;\n\n  constructor(address _data) public {\n    data = Data(_data);\n    owner = msg.sender;\n  }\n\n  function setNumber(uint256 num) public {\n    data.setNumber(msg.sender, num);\n  }\n\n  function getNumber(address addr) view public returns(uint256 num) {\n    return data.getNumber(addr) + 5;\n  }\n\n  function setDataContract(address _data) public {\n    data = Data(_data);\n  }\n\n  modifier onlyOwner() {\n    require(msg.sender == owner);\n    _;\n  }\n\n}",
  "sourcePath": "/Users/chenwei/Desktop/workshop/workshop-dapp-development/10_contract_migration_data_separation_pattern/contracts/Contract.sol",
  "compiler": {
    "name": "solc",
    "version": "0.5.1+commit.d7688b80.Emscripten.clang"
  },
  "schemaVersion": "3.0.10",
  "updatedAt": "2019-01-17T10:19:57.093Z",
  "devdoc": {
    "methods": {}
  },
  "userdoc": {
    "methods": {}
  }
}