{
  "contractName": "Hello",
  "abi": [
    {
      "constant": true,
      "inputs": [],
      "name": "value",
      "outputs": [
        {
          "name": "",
          "type": "uint256"
        }
      ],
      "payable": false,
      "stateMutability": "view",
      "type": "function",
      "signature": "0x3fa4f245"
    },
    {
      "anonymous": false,
      "inputs": [
        {
          "indexed": false,
          "name": "_value",
          "type": "uint256"
        }
      ],
      "name": "UpdateNumber",
      "type": "event",
      "signature": "0x6b92c47882e6ee1bf9b304b5254abd6e69d89bc7ed8883e365791c127b146a82"
    },
    {
      "anonymous": false,
      "inputs": [
        {
          "indexed": false,
          "name": "value",
          "type": "uint256"
        },
        {
          "indexed": false,
          "name": "sender",
          "type": "address"
        }
      ],
      "name": "receivedFund",
      "type": "event",
      "signature": "0x415bf04ae4a717ffbf6390be7f38764c4a67e99a67b94ccb2104783aae3e6369"
    },
    {
      "constant": false,
      "inputs": [],
      "name": "update",
      "outputs": [],
      "payable": false,
      "stateMutability": "nonpayable",
      "type": "function",
      "signature": "0xa2e62045"
    },
    {
      "constant": true,
      "inputs": [],
      "name": "get",
      "outputs": [
        {
          "name": "",
          "type": "uint256"
        }
      ],
      "payable": false,
      "stateMutability": "view",
      "type": "function",
      "signature": "0x6d4ce63c"
    },
    {
      "constant": false,
      "inputs": [],
      "name": "funding",
      "outputs": [],
      "payable": true,
      "stateMutability": "payable",
      "type": "function",
      "signature": "0xcb4c86b7"
    }
  ],
  "bytecode": "0x608060405234801561001057600080fd5b506101cb806100206000396000f3fe60806040526004361061005c576000357c0100000000000000000000000000000000000000000000000000000000900480633fa4f245146100615780636d4ce63c1461008c578063a2e62045146100b7578063cb4c86b7146100ce575b600080fd5b34801561006d57600080fd5b506100766100d8565b6040518082815260200191505060405180910390f35b34801561009857600080fd5b506100a16100de565b6040518082815260200191505060405180910390f35b3480156100c357600080fd5b506100cc6100e7565b005b6100d6610132565b005b60005481565b60008054905090565b600160008082825401925050819055507f6b92c47882e6ee1bf9b304b5254abd6e69d89bc7ed8883e365791c127b146a826000546040518082815260200191505060405180910390a1565b7f415bf04ae4a717ffbf6390be7f38764c4a67e99a67b94ccb2104783aae3e63693433604051808381526020018273ffffffffffffffffffffffffffffffffffffffff1673ffffffffffffffffffffffffffffffffffffffff1681526020019250505060405180910390a156fea165627a7a72305820cfbd42da056601c8416088429bcc8865ce5c5977a08529fd527891a5ff61a23b0029",
  "source": "pragma solidity ^0.5.1;\n\ncontract Hello {\n    uint256 public value;\n\n    event UpdateNumber(uint256 _value);\n    event receivedFund(uint256 value, address sender);\n\n    function update() public {\n        value += 1;\n        emit UpdateNumber(value);\n    }\n\n    function get() public view returns (uint256) {\n        return value;\n    }\n\n    function funding() public payable {\n        emit receivedFund(msg.value, msg.sender);\n    }\n}",
  "sourcePath": "/Users/chenwei/Desktop/workshop/workshop-dapp-development/04_deploy_to_testnet/contracts/Hello.sol",
  "compiler": {
    "name": "solc",
    "version": "0.5.1+commit.d7688b80.Emscripten.clang"
  },
  "schemaVersion": "3.0.10",
  "updatedAt": "2019-01-10T11:29:57.832Z",
  "devdoc": {
    "methods": {}
  },
  "userdoc": {
    "methods": {}
  }
}