{
  "contractName": "Data",
  "abi": [
    {
      "constant": true,
      "inputs": [],
      "name": "logicContract",
      "outputs": [
        {
          "name": "",
          "type": "address"
        }
      ],
      "payable": false,
      "stateMutability": "view",
      "type": "function",
      "signature": "0xcc0e97c9"
    },
    {
      "constant": true,
      "inputs": [
        {
          "name": "",
          "type": "address"
        }
      ],
      "name": "numbers",
      "outputs": [
        {
          "name": "",
          "type": "uint256"
        }
      ],
      "payable": false,
      "stateMutability": "view",
      "type": "function",
      "signature": "0xe349fe3a"
    },
    {
      "inputs": [],
      "payable": false,
      "stateMutability": "nonpayable",
      "type": "constructor"
    },
    {
      "payable": false,
      "stateMutability": "nonpayable",
      "type": "fallback"
    },
    {
      "constant": false,
      "inputs": [
        {
          "name": "addr",
          "type": "address"
        }
      ],
      "name": "setLogicContract",
      "outputs": [],
      "payable": false,
      "stateMutability": "nonpayable",
      "type": "function",
      "signature": "0x5aa4470f"
    },
    {
      "constant": true,
      "inputs": [
        {
          "name": "addr",
          "type": "address"
        }
      ],
      "name": "getNumber",
      "outputs": [
        {
          "name": "num",
          "type": "uint256"
        }
      ],
      "payable": false,
      "stateMutability": "view",
      "type": "function",
      "signature": "0x942ea466"
    }
  ],
  "bytecode": "0x608060405234801561001057600080fd5b50336000806101000a81548173ffffffffffffffffffffffffffffffffffffffff021916908373ffffffffffffffffffffffffffffffffffffffff1602179055506103c3806100606000396000f3fe60806040526004361061005c576000357c0100000000000000000000000000000000000000000000000000000000900480635aa4470f146100ff578063942ea46614610150578063cc0e97c9146101b5578063e349fe3a1461020c575b34801561006857600080fd5b50600160009054906101000a900473ffffffffffffffffffffffffffffffffffffffff1673ffffffffffffffffffffffffffffffffffffffff16600036604051808383808284378083019250505092505050600060405180830381855af49150503d80600081146100f5576040519150601f19603f3d011682016040523d82523d6000602084013e6100fa565b606091505b505050005b34801561010b57600080fd5b5061014e6004803603602081101561012257600080fd5b81019080803573ffffffffffffffffffffffffffffffffffffffff169060200190929190505050610271565b005b34801561015c57600080fd5b5061019f6004803603602081101561017357600080fd5b81019080803573ffffffffffffffffffffffffffffffffffffffff169060200190929190505050610310565b6040518082815260200191505060405180910390f35b3480156101c157600080fd5b506101ca610359565b604051808273ffffffffffffffffffffffffffffffffffffffff1673ffffffffffffffffffffffffffffffffffffffff16815260200191505060405180910390f35b34801561021857600080fd5b5061025b6004803603602081101561022f57600080fd5b81019080803573ffffffffffffffffffffffffffffffffffffffff16906020019092919050505061037f565b6040518082815260200191505060405180910390f35b6000809054906101000a900473ffffffffffffffffffffffffffffffffffffffff1673ffffffffffffffffffffffffffffffffffffffff163373ffffffffffffffffffffffffffffffffffffffff161415156102cc57600080fd5b80600160006101000a81548173ffffffffffffffffffffffffffffffffffffffff021916908373ffffffffffffffffffffffffffffffffffffffff16021790555050565b6000600260008373ffffffffffffffffffffffffffffffffffffffff1673ffffffffffffffffffffffffffffffffffffffff168152602001908152602001600020549050919050565b600160009054906101000a900473ffffffffffffffffffffffffffffffffffffffff1681565b6002602052806000526040600020600091509050548156fea165627a7a723058207bba7bc6289b5a60abb4cafbb19ca75951bf26d46185206bb91bac384d82967a0029",
  "source": "pragma solidity ^0.5.1;\n\ncontract Data {\n\n  address owner;\n  address public logicContract;\n  mapping(address => uint) public numbers;\n\n  constructor() public {\n    owner = msg.sender;\n  }\n\n  function setLogicContract(address addr) onlyOwner public {\n    logicContract = addr;\n  }\n\n  modifier onlyOwner() {\n    require(msg.sender == owner);\n    _;\n  }\n\n  function getNumber(address addr) view public returns(uint256 num) {\n    return numbers[addr];\n  }\n\n  function() external {\n    logicContract.delegatecall(msg.data);\n  }\n\n}\n\ncontract Logic {\n\n  address owner;\n  address public logicContract;\n  mapping(address => uint) public numbers;\n\n  event Test();\n\n  function setNumber(uint256 num) public onlyOwner {\n    numbers[msg.sender] = num;\n    emit Test();\n  }\n\n  modifier onlyOwner() {\n    require(msg.sender == owner);\n    _;\n  }\n\n}",
  "sourcePath": "/Users/chenwei/Desktop/workshop/workshop-dapp-development/11_contract_migration_by_delegatecall_proxy_pattern/contracts/Contract.sol",
  "compiler": {
    "name": "solc",
    "version": "0.5.1+commit.d7688b80.Emscripten.clang"
  },
  "schemaVersion": "3.0.10",
  "updatedAt": "2019-01-17T12:14:20.997Z",
  "devdoc": {
    "methods": {}
  },
  "userdoc": {
    "methods": {}
  }
}