{
  "contractName": "Logic",
  "abi": [
    {
      "constant": true,
      "inputs": [],
      "name": "data",
      "outputs": [
        {
          "name": "",
          "type": "address"
        }
      ],
      "payable": false,
      "stateMutability": "view",
      "type": "function",
      "signature": "0x73d4a13a"
    },
    {
      "inputs": [
        {
          "name": "_data",
          "type": "address"
        }
      ],
      "payable": false,
      "stateMutability": "nonpayable",
      "type": "constructor",
      "signature": "constructor"
    },
    {
      "constant": false,
      "inputs": [
        {
          "name": "num",
          "type": "uint256"
        }
      ],
      "name": "setNumber",
      "outputs": [],
      "payable": false,
      "stateMutability": "nonpayable",
      "type": "function",
      "signature": "0x3fb5c1cb"
    },
    {
      "constant": true,
      "inputs": [
        {
          "name": "addr",
          "type": "address"
        }
      ],
      "name": "getNumber",
      "outputs": [
        {
          "name": "num",
          "type": "uint256"
        }
      ],
      "payable": false,
      "stateMutability": "view",
      "type": "function",
      "signature": "0x942ea466"
    },
    {
      "constant": false,
      "inputs": [
        {
          "name": "_data",
          "type": "address"
        }
      ],
      "name": "setDataContract",
      "outputs": [],
      "payable": false,
      "stateMutability": "nonpayable",
      "type": "function",
      "signature": "0x03959bb7"
    }
  ],
  "bytecode": "0x608060405234801561001057600080fd5b506040516020806104ef8339810180604052602081101561003057600080fd5b8101908080519060200190929190505050806000806101000a81548173ffffffffffffffffffffffffffffffffffffffff021916908373ffffffffffffffffffffffffffffffffffffffff16021790555033600160006101000a81548173ffffffffffffffffffffffffffffffffffffffff021916908373ffffffffffffffffffffffffffffffffffffffff1602179055505061041d806100d26000396000f3fe60806040526004361061005c576000357c01000000000000000000000000000000000000000000000000000000009004806303959bb7146100615780633fb5c1cb146100b257806373d4a13a146100ed578063942ea46614610144575b600080fd5b34801561006d57600080fd5b506100b06004803603602081101561008457600080fd5b81019080803573ffffffffffffffffffffffffffffffffffffffff1690602001909291905050506101a9565b005b3480156100be57600080fd5b506100eb600480360360208110156100d557600080fd5b81019080803590602001909291905050506101ec565b005b3480156100f957600080fd5b506101026102cb565b604051808273ffffffffffffffffffffffffffffffffffffffff1673ffffffffffffffffffffffffffffffffffffffff16815260200191505060405180910390f35b34801561015057600080fd5b506101936004803603602081101561016757600080fd5b81019080803573ffffffffffffffffffffffffffffffffffffffff1690602001909291905050506102f0565b6040518082815260200191505060405180910390f35b806000806101000a81548173ffffffffffffffffffffffffffffffffffffffff021916908373ffffffffffffffffffffffffffffffffffffffff16021790555050565b6000809054906101000a900473ffffffffffffffffffffffffffffffffffffffff1673ffffffffffffffffffffffffffffffffffffffff1663845a177833836040518363ffffffff167c0100000000000000000000000000000000000000000000000000000000028152600401808373ffffffffffffffffffffffffffffffffffffffff1673ffffffffffffffffffffffffffffffffffffffff16815260200182815260200192505050600060405180830381600087803b1580156102b057600080fd5b505af11580156102c4573d6000803e3d6000fd5b5050505050565b6000809054906101000a900473ffffffffffffffffffffffffffffffffffffffff1681565b600060056000809054906101000a900473ffffffffffffffffffffffffffffffffffffffff1673ffffffffffffffffffffffffffffffffffffffff1663942ea466846040518263ffffffff167c0100000000000000000000000000000000000000000000000000000000028152600401808273ffffffffffffffffffffffffffffffffffffffff1673ffffffffffffffffffffffffffffffffffffffff16815260200191505060206040518083038186803b1580156103ae57600080fd5b505afa1580156103c2573d6000803e3d6000fd5b505050506040513d60208110156103d857600080fd5b810190808051906020019092919050505001905091905056fea165627a7a723058208bcd2221bf9f4fb4cb505989dcb99d0322eca71f1ea186a458cacff41f538cff0029",
  "source": "pragma solidity ^0.5.1;\n\ncontract Data {\n  address owner;\n  address logicContract;\n\n  mapping(address => uint) public numbers;\n\n  constructor() public {\n    owner = msg.sender;\n  }\n\n  function setNumber(address user, uint256 num) onlyLogicContract external {\n    numbers[user] = num;\n  }\n  function getNumber(address user) external view returns(uint256) {\n    return numbers[user];\n  }\n\n  function setLogicContract(address _addr) onlyOwner public {\n    logicContract = _addr;\n  }\n\n  modifier onlyOwner() {\n    require(msg.sender == owner);\n    _;\n  }\n  modifier onlyLogicContract() {\n    require(msg.sender == logicContract);\n    _;\n  }\n}\n\ncontract Logic {\n\n  Data public data;\n  address owner;\n\n  constructor(address _data) public {\n    data = Data(_data);\n    owner = msg.sender;\n  }\n\n  function setNumber(uint256 num) public {\n    data.setNumber(msg.sender, num);\n  }\n\n  function getNumber(address addr) view public returns(uint256 num) {\n    return data.getNumber(addr) + 5;\n  }\n\n  function setDataContract(address _data) public {\n    data = Data(_data);\n  }\n\n  modifier onlyOwner() {\n    require(msg.sender == owner);\n    _;\n  }\n\n}",
  "sourcePath": "/Users/chenwei/Desktop/workshop/workshop-dapp-development/10_contract_migration_data_separation_pattern/contracts/Contract.sol",
  "compiler": {
    "name": "solc",
    "version": "0.5.1+commit.d7688b80.Emscripten.clang"
  },
  "schemaVersion": "3.0.10",
  "updatedAt": "2019-01-17T10:19:57.097Z",
  "devdoc": {
    "methods": {}
  },
  "userdoc": {
    "methods": {}
  }
}