{
  "contractName": "Logic",
  "abi": [
    {
      "constant": true,
      "inputs": [],
      "name": "logicContract",
      "outputs": [
        {
          "name": "",
          "type": "address"
        }
      ],
      "payable": false,
      "stateMutability": "view",
      "type": "function",
      "signature": "0xcc0e97c9"
    },
    {
      "constant": true,
      "inputs": [
        {
          "name": "",
          "type": "address"
        }
      ],
      "name": "numbers",
      "outputs": [
        {
          "name": "",
          "type": "uint256"
        }
      ],
      "payable": false,
      "stateMutability": "view",
      "type": "function",
      "signature": "0xe349fe3a"
    },
    {
      "anonymous": false,
      "inputs": [],
      "name": "Test",
      "type": "event",
      "signature": "0xa163a6249e860c278ef4049759a7f7c7e8c141d30fd634fda9b5a6a95d111a30"
    },
    {
      "constant": false,
      "inputs": [
        {
          "name": "num",
          "type": "uint256"
        }
      ],
      "name": "setNumber",
      "outputs": [],
      "payable": false,
      "stateMutability": "nonpayable",
      "type": "function",
      "signature": "0x3fb5c1cb"
    }
  ],
  "bytecode": "0x608060405234801561001057600080fd5b50610285806100206000396000f3fe608060405260043610610051576000357c0100000000000000000000000000000000000000000000000000000000900480633fb5c1cb14610056578063cc0e97c914610091578063e349fe3a146100e8575b600080fd5b34801561006257600080fd5b5061008f6004803603602081101561007957600080fd5b810190808035906020019092919050505061014d565b005b34801561009d57600080fd5b506100a661021b565b604051808273ffffffffffffffffffffffffffffffffffffffff1673ffffffffffffffffffffffffffffffffffffffff16815260200191505060405180910390f35b3480156100f457600080fd5b506101376004803603602081101561010b57600080fd5b81019080803573ffffffffffffffffffffffffffffffffffffffff169060200190929190505050610241565b6040518082815260200191505060405180910390f35b6000809054906101000a900473ffffffffffffffffffffffffffffffffffffffff1673ffffffffffffffffffffffffffffffffffffffff163373ffffffffffffffffffffffffffffffffffffffff161415156101a857600080fd5b80600260003373ffffffffffffffffffffffffffffffffffffffff1673ffffffffffffffffffffffffffffffffffffffff168152602001908152602001600020819055507fa163a6249e860c278ef4049759a7f7c7e8c141d30fd634fda9b5a6a95d111a3060405160405180910390a150565b600160009054906101000a900473ffffffffffffffffffffffffffffffffffffffff1681565b6002602052806000526040600020600091509050548156fea165627a7a7230582038e0c0e930f781fc9d663b9416ff258aeebb0e219cd7078c624b82b3f08540810029",
  "source": "pragma solidity ^0.5.1;\n\ncontract Data {\n\n  address owner;\n  address public logicContract;\n  mapping(address => uint) public numbers;\n\n  constructor() public {\n    owner = msg.sender;\n  }\n\n  function setLogicContract(address addr) onlyOwner public {\n    logicContract = addr;\n  }\n\n  modifier onlyOwner() {\n    require(msg.sender == owner);\n    _;\n  }\n\n  function getNumber(address addr) view public returns(uint256 num) {\n    return numbers[addr];\n  }\n\n  function() external {\n    logicContract.delegatecall(msg.data);\n  }\n\n}\n\ncontract Logic {\n\n  address owner;\n  address public logicContract;\n  mapping(address => uint) public numbers;\n\n  event Test();\n\n  function setNumber(uint256 num) public onlyOwner {\n    numbers[msg.sender] = num;\n    emit Test();\n  }\n\n  modifier onlyOwner() {\n    require(msg.sender == owner);\n    _;\n  }\n\n}",
  "sourcePath": "/Users/chenwei/Desktop/workshop/workshop-dapp-development/11_contract_migration_by_delegatecall_proxy_pattern/contracts/Contract.sol",
  "compiler": {
    "name": "solc",
    "version": "0.5.1+commit.d7688b80.Emscripten.clang"
  },
  "schemaVersion": "3.0.10",
  "updatedAt": "2019-01-17T12:14:20.998Z",
  "devdoc": {
    "methods": {}
  },
  "userdoc": {
    "methods": {}
  }
}