{
  "contractName": "Hello",
  "abi": [
    {
      "constant": true,
      "inputs": [],
      "name": "value",
      "outputs": [
        {
          "name": "",
          "type": "uint256"
        }
      ],
      "payable": false,
      "stateMutability": "view",
      "type": "function"
    },
    {
      "anonymous": false,
      "inputs": [
        {
          "indexed": false,
          "name": "_value",
          "type": "uint256"
        }
      ],
      "name": "UpdateNumber",
      "type": "event"
    },
    {
      "constant": false,
      "inputs": [],
      "name": "update",
      "outputs": [],
      "payable": false,
      "stateMutability": "nonpayable",
      "type": "function"
    },
    {
      "constant": true,
      "inputs": [],
      "name": "get",
      "outputs": [
        {
          "name": "",
          "type": "uint256"
        }
      ],
      "payable": false,
      "stateMutability": "view",
      "type": "function"
    }
  ],
  "bytecode": "0x608060405234801561001057600080fd5b50610146806100206000396000f300608060405260043610610057576000357c0100000000000000000000000000000000000000000000000000000000900463ffffffff1680633fa4f2451461005c5780636d4ce63c14610087578063a2e62045146100b2575b600080fd5b34801561006857600080fd5b506100716100c9565b6040518082815260200191505060405180910390f35b34801561009357600080fd5b5061009c6100cf565b6040518082815260200191505060405180910390f35b3480156100be57600080fd5b506100c76100d8565b005b60005481565b60008054905090565b2f6000819055507f6b92c47882e6ee1bf9b304b5254abd6e69d89bc7ed8883e365791c127b146a826000546040518082815260200191505060405180910390a15600a165627a7a723058204a73356aa77ccd78645afc5568a5a3c94b1f414e109effc1d15417fd41781e090029",
  "source": "pragma solidity ^0.4.25;\n\ncontract Hello {\n    uint256 public value;\n\n    event UpdateNumber(uint256 _value);\n\n    function update() public {\n        value = rand;\n        emit UpdateNumber(value);\n    }\n\n    function get() public view returns (uint256) {\n        return value;\n    }\n}",
  "sourcePath": "/Users/chenwei/Desktop/workshop/workshop-dapp-development/_basic/contracts/Hello.sol",
  "compiler": {
    "name": "dsolc",
    "version": "0.4.25+commit.433aebb7.Emscripten.clang"
  },
  "schemaVersion": "2.0.2",
  "updatedAt": "2019-01-08T10:02:28.431Z"
}